{
  "contractName": "CriminalRecords",
  "abi": [
    {
      "inputs": [],
      "payable": false,
      "stateMutability": "nonpayable",
      "type": "constructor"
    },
    {
      "constant": false,
      "inputs": [
        {
          "internalType": "address",
          "name": "user",
          "type": "address"
        }
      ],
      "name": "grantAccess",
      "outputs": [],
      "payable": false,
      "stateMutability": "nonpayable",
      "type": "function"
    },
    {
      "constant": false,
      "inputs": [
        {
          "internalType": "address",
          "name": "user",
          "type": "address"
        }
      ],
      "name": "revokeAccess",
      "outputs": [],
      "payable": false,
      "stateMutability": "nonpayable",
      "type": "function"
    },
    {
      "constant": false,
      "inputs": [
        {
          "internalType": "bytes32",
          "name": "criminalId",
          "type": "bytes32"
        },
        {
          "internalType": "bytes32",
          "name": "evidenceCID",
          "type": "bytes32"
        },
        {
          "internalType": "bytes32",
          "name": "photographCID",
          "type": "bytes32"
        },
        {
          "internalType": "bytes32",
          "name": "caseFileCID",
          "type": "bytes32"
        }
      ],
      "name": "uploadRecord",
      "outputs": [],
      "payable": false,
      "stateMutability": "nonpayable",
      "type": "function"
    },
    {
      "constant": true,
      "inputs": [
        {
          "internalType": "bytes32",
          "name": "criminalId",
          "type": "bytes32"
        }
      ],
      "name": "getRecordCIDs",
      "outputs": [
        {
          "internalType": "bytes32",
          "name": "evidenceCID",
          "type": "bytes32"
        },
        {
          "internalType": "bytes32",
          "name": "photographCID",
          "type": "bytes32"
        },
        {
          "internalType": "bytes32",
          "name": "caseFileCID",
          "type": "bytes32"
        }
      ],
      "payable": false,
      "stateMutability": "view",
      "type": "function"
    }
  ],
  "bytecode": "0x608060405234801561001057600080fd5b50336000908152600160208190526040909120805460ff191690911790556102de8061003d6000396000f3fe608060405234801561001057600080fd5b506004361061004c5760003560e01c80630ae5e73914610051578063110aabfd146100795780637fedcfaa146100a857806385e68531146100e3575b600080fd5b6100776004803603602081101561006757600080fd5b50356001600160a01b0316610109565b005b6100776004803603608081101561008f57600080fd5b5080359060208101359060408101359060600135610185565b6100c5600480360360208110156100be57600080fd5b5035610214565b60408051938452602084019290925282820152519081900360600190f35b610077600480360360208110156100f957600080fd5b50356001600160a01b0316610233565b3360009081526001602052604090205460ff1661015e576040805162461bcd60e51b815260206004820152600e60248201526d139bdd08185d5d1a1bdc9a5e995960921b604482015290519081900360640190fd5b6001600160a01b03166000908152600160208190526040909120805460ff19169091179055565b3360009081526001602052604090205460ff166101da576040805162461bcd60e51b815260206004820152600e60248201526d139bdd08185d5d1a1bdc9a5e995960921b604482015290519081900360640190fd5b6040805160608101825293845260208085019384528482019283526000958652859052909320915182555160018201559051600290910155565b6000908152602081905260409020805460018201546002909201549092565b3360009081526001602052604090205460ff16610288576040805162461bcd60e51b815260206004820152600e60248201526d139bdd08185d5d1a1bdc9a5e995960921b604482015290519081900360640190fd5b6001600160a01b03166000908152600160205260409020805460ff1916905556fea265627a7a72315820627d4c052333227153ff0083e775e401ea8749571d63e532f61aeb98756ca7ad64736f6c63430005110032",
  "source": "// SPDX-License-Identifier: MIT\r\npragma solidity ^0.5.16;\r\n\r\n\r\n\r\ncontract CriminalRecords {\r\n    struct Record {\r\n        bytes32 evidenceCID;\r\n        bytes32 photographCID;\r\n        bytes32 caseFileCID;\r\n    \r\n    }\r\n\r\n    mapping(bytes32 => Record) private records;\r\n    mapping(address => bool) private authorizedUsers;\r\n\r\n   constructor() public { \r\n            authorizedUsers[msg.sender] = true;\r\n    }\r\n\r\n    modifier onlyAuthorized() {\r\n        require(authorizedUsers[msg.sender], \"Not authorized\");\r\n        _;\r\n    }\r\n\r\n    function grantAccess(address user) public onlyAuthorized {\r\n        authorizedUsers[user] = true;\r\n    }\r\n\r\n    function revokeAccess(address user) public onlyAuthorized {\r\n        authorizedUsers[user] = false;\r\n    }\r\n\r\n    function uploadRecord(\r\n        bytes32 criminalId,\r\n        bytes32 evidenceCID,\r\n        bytes32 photographCID,\r\n        bytes32 caseFileCID\r\n    ) public onlyAuthorized {\r\n        records[criminalId] = Record({\r\n            evidenceCID: evidenceCID,\r\n            photographCID: photographCID,\r\n            caseFileCID: caseFileCID\r\n        });\r\n    }\r\n\r\n    function getRecordCIDs(bytes32 criminalId)\r\n        public\r\n        view\r\n        returns (\r\n            bytes32 evidenceCID,\r\n            bytes32 photographCID,\r\n            bytes32 caseFileCID\r\n        )\r\n    {\r\n        Record storage record = records[criminalId];\r\n        return (record.evidenceCID, record.photographCID, record.caseFileCID);\r\n    }\r\n}\r\n",
  "sourcePath": "C:\\Users\\Naveen Reddy\\Documents\\GitHub\\Hacktopia-2k23\\ipfs\\contracts\\CriminalRecords.sol",
  "compiler": {
    "name": "solc",
    "version": "0.5.17+commit.d19bba13.Emscripten.clang"
  },
  "schemaVersion": "3.4.15",
  "updatedAt": "2023-08-25T06:19:48.560Z",
  "networkType": "ethereum",
  "devdoc": {
    "methods": {}
  },
  "userdoc": {
    "methods": {}
  }
}