{
  "contractName": "CriminalRecords",
  "abi": [
    {
      "inputs": [],
      "stateMutability": "nonpayable",
      "type": "constructor"
    },
    {
      "inputs": [
        {
          "internalType": "address",
          "name": "user",
          "type": "address"
        }
      ],
      "name": "grantAccess",
      "outputs": [],
      "stateMutability": "nonpayable",
      "type": "function"
    },
    {
      "inputs": [
        {
          "internalType": "address",
          "name": "user",
          "type": "address"
        }
      ],
      "name": "revokeAccess",
      "outputs": [],
      "stateMutability": "nonpayable",
      "type": "function"
    },
    {
      "inputs": [
        {
          "internalType": "bytes32",
          "name": "criminalId",
          "type": "bytes32"
        },
        {
          "internalType": "bytes32",
          "name": "evidenceCID",
          "type": "bytes32"
        },
        {
          "internalType": "bytes32",
          "name": "photographCID",
          "type": "bytes32"
        },
        {
          "internalType": "bytes32",
          "name": "caseFileCID",
          "type": "bytes32"
        }
      ],
      "name": "uploadRecord",
      "outputs": [],
      "stateMutability": "nonpayable",
      "type": "function"
    },
    {
      "inputs": [
        {
          "internalType": "bytes32",
          "name": "criminalId",
          "type": "bytes32"
        }
      ],
      "name": "getRecordCIDs",
      "outputs": [
        {
          "internalType": "bytes32",
          "name": "evidenceCID",
          "type": "bytes32"
        },
        {
          "internalType": "bytes32",
          "name": "photographCID",
          "type": "bytes32"
        },
        {
          "internalType": "bytes32",
          "name": "caseFileCID",
          "type": "bytes32"
        }
      ],
      "stateMutability": "view",
      "type": "function",
      "constant": true
    }
  ],
  "bytecode": "0x608060405234801561000f575f80fd5b506001805f3373ffffffffffffffffffffffffffffffffffffffff1673ffffffffffffffffffffffffffffffffffffffff1681526020019081526020015f205f6101000a81548160ff0219169083151502179055506105dc806100715f395ff3fe608060405234801561000f575f80fd5b506004361061004a575f3560e01c80630ae5e7391461004e578063110aabfd1461006a5780637fedcfaa1461008657806385e68531146100b8575b5f80fd5b610068600480360381019061006391906103fd565b6100d4565b005b610084600480360381019061007f919061045b565b6101b4565b005b6100a0600480360381019061009b91906104bf565b61028d565b6040516100af939291906104f9565b60405180910390f35b6100d260048036038101906100cd91906103fd565b6102bf565b005b60015f3373ffffffffffffffffffffffffffffffffffffffff1673ffffffffffffffffffffffffffffffffffffffff1681526020019081526020015f205f9054906101000a900460ff1661015d576040517f08c379a000000000000000000000000000000000000000000000000000000000815260040161015490610588565b60405180910390fd5b6001805f8373ffffffffffffffffffffffffffffffffffffffff1673ffffffffffffffffffffffffffffffffffffffff1681526020019081526020015f205f6101000a81548160ff02191690831515021790555050565b60015f3373ffffffffffffffffffffffffffffffffffffffff1673ffffffffffffffffffffffffffffffffffffffff1681526020019081526020015f205f9054906101000a900460ff1661023d576040517f08c379a000000000000000000000000000000000000000000000000000000000815260040161023490610588565b60405180910390fd5b6040518060600160405280848152602001838152602001828152505f808681526020019081526020015f205f820151815f0155602082015181600101556040820151816002015590505050505050565b5f805f805f808681526020019081526020015f209050805f015481600101548260020154935093509350509193909250565b60015f3373ffffffffffffffffffffffffffffffffffffffff1673ffffffffffffffffffffffffffffffffffffffff1681526020019081526020015f205f9054906101000a900460ff16610348576040517f08c379a000000000000000000000000000000000000000000000000000000000815260040161033f90610588565b60405180910390fd5b5f60015f8373ffffffffffffffffffffffffffffffffffffffff1673ffffffffffffffffffffffffffffffffffffffff1681526020019081526020015f205f6101000a81548160ff02191690831515021790555050565b5f80fd5b5f73ffffffffffffffffffffffffffffffffffffffff82169050919050565b5f6103cc826103a3565b9050919050565b6103dc816103c2565b81146103e6575f80fd5b50565b5f813590506103f7816103d3565b92915050565b5f602082840312156104125761041161039f565b5b5f61041f848285016103e9565b91505092915050565b5f819050919050565b61043a81610428565b8114610444575f80fd5b50565b5f8135905061045581610431565b92915050565b5f805f80608085870312156104735761047261039f565b5b5f61048087828801610447565b945050602061049187828801610447565b93505060406104a287828801610447565b92505060606104b387828801610447565b91505092959194509250565b5f602082840312156104d4576104d361039f565b5b5f6104e184828501610447565b91505092915050565b6104f381610428565b82525050565b5f60608201905061050c5f8301866104ea565b61051960208301856104ea565b61052660408301846104ea565b949350505050565b5f82825260208201905092915050565b7f4e6f7420617574686f72697a65640000000000000000000000000000000000005f82015250565b5f610572600e8361052e565b915061057d8261053e565b602082019050919050565b5f6020820190508181035f83015261059f81610566565b905091905056fea2646970667358221220310a91285d102b16693849c9be464b4880d6040d4bfdc890c9de74ae155e438564736f6c63430008150033",
  "immutableReferences": {},
  "source": "// SPDX-License-Identifier: MIT\npragma solidity ^0.8.0;\n\n\n\ncontract CriminalRecords {\n    struct Record {\n        bytes32 evidenceCID;\n        bytes32 photographCID;\n        bytes32 caseFileCID;\n    \n    }\n\n    mapping(bytes32 => Record) private records;\n    mapping(address => bool) private authorizedUsers;\n\n    constructor() {\n        authorizedUsers[msg.sender] = true;\n    }\n\n    modifier onlyAuthorized() {\n        require(authorizedUsers[msg.sender], \"Not authorized\");\n        _;\n    }\n\n    function grantAccess(address user) public onlyAuthorized {\n        authorizedUsers[user] = true;\n    }\n\n    function revokeAccess(address user) public onlyAuthorized {\n        authorizedUsers[user] = false;\n    }\n\n    function uploadRecord(\n        bytes32 criminalId,\n        bytes32 evidenceCID,\n        bytes32 photographCID,\n        bytes32 caseFileCID\n    ) public onlyAuthorized {\n        records[criminalId] = Record({\n            evidenceCID: evidenceCID,\n            photographCID: photographCID,\n            caseFileCID: caseFileCID\n        });\n    }\n\n    function getRecordCIDs(bytes32 criminalId)\n        public\n        view\n        returns (\n            bytes32 evidenceCID,\n            bytes32 photographCID,\n            bytes32 caseFileCID\n        )\n    {\n        Record storage record = records[criminalId];\n        return (record.evidenceCID, record.photographCID, record.caseFileCID);\n    }\n}\n",
  "sourcePath": "/home/pavanmanishd/Desktop/Projects/Hacktopia-2k23/ipfs/contracts/CriminalRecords.sol",
  "compiler": {
    "name": "solc",
    "version": "0.8.21+commit.d9974bed.Emscripten.clang"
  },
  "schemaVersion": "3.4.15",
  "updatedAt": "2023-08-21T16:40:58.398Z",
  "networkType": "ethereum",
  "devdoc": {
    "kind": "dev",
    "methods": {},
    "version": 1
  },
  "userdoc": {
    "kind": "user",
    "methods": {},
    "version": 1
  }
}